{
  "contractName": "Election",
  "abi": [
    {
      "constant": true,
      "inputs": [
        {
          "name": "",
          "type": "address"
        }
      ],
      "name": "hasVoted",
      "outputs": [
        {
          "name": "",
          "type": "bool"
        }
      ],
      "payable": false,
      "stateMutability": "view",
      "type": "function",
      "signature": "0x09eef43e"
    },
    {
      "constant": true,
      "inputs": [],
      "name": "electionState",
      "outputs": [
        {
          "name": "",
          "type": "bool"
        }
      ],
      "payable": false,
      "stateMutability": "view",
      "type": "function",
      "signature": "0x2280043d"
    },
    {
      "constant": true,
      "inputs": [],
      "name": "candidatesCount",
      "outputs": [
        {
          "name": "",
          "type": "uint256"
        }
      ],
      "payable": false,
      "stateMutability": "view",
      "type": "function",
      "signature": "0x2d35a8a2"
    },
    {
      "constant": true,
      "inputs": [
        {
          "name": "",
          "type": "uint256"
        }
      ],
      "name": "candidates",
      "outputs": [
        {
          "name": "id",
          "type": "uint256"
        },
        {
          "name": "name",
          "type": "string"
        },
        {
          "name": "voteCount",
          "type": "uint256"
        }
      ],
      "payable": false,
      "stateMutability": "view",
      "type": "function",
      "signature": "0x3477ee2e"
    },
    {
      "constant": true,
      "inputs": [
        {
          "name": "",
          "type": "address"
        }
      ],
      "name": "isValidVoter",
      "outputs": [
        {
          "name": "",
          "type": "bool"
        }
      ],
      "payable": false,
      "stateMutability": "view",
      "type": "function",
      "signature": "0xd25b11e0"
    },
    {
      "inputs": [
        {
          "name": "adm",
          "type": "address"
        }
      ],
      "payable": false,
      "stateMutability": "nonpayable",
      "type": "constructor",
      "signature": "constructor"
    },
    {
      "anonymous": false,
      "inputs": [
        {
          "indexed": true,
          "name": "candidateId",
          "type": "uint256"
        }
      ],
      "name": "votedEvent",
      "type": "event",
      "signature": "0xfff3c900d938d21d0990d786e819f29b8d05c1ef587b462b939609625b684b16"
    },
    {
      "constant": false,
      "inputs": [
        {
          "name": "_name",
          "type": "string"
        }
      ],
      "name": "addCandidate",
      "outputs": [],
      "payable": false,
      "stateMutability": "nonpayable",
      "type": "function",
      "signature": "0x462e91ec"
    },
    {
      "constant": false,
      "inputs": [
        {
          "name": "voter",
          "type": "address"
        }
      ],
      "name": "addVoter",
      "outputs": [],
      "payable": false,
      "stateMutability": "nonpayable",
      "type": "function",
      "signature": "0xf4ab9adf"
    },
    {
      "constant": false,
      "inputs": [
        {
          "name": "candidateId",
          "type": "uint256"
        }
      ],
      "name": "vote",
      "outputs": [],
      "payable": false,
      "stateMutability": "nonpayable",
      "type": "function",
      "signature": "0x0121b93f"
    },
    {
      "constant": false,
      "inputs": [],
      "name": "stopVoting",
      "outputs": [],
      "payable": false,
      "stateMutability": "nonpayable",
      "type": "function",
      "signature": "0xfab2f86b"
    }
  ],
  "bytecode": "0x608060405234801561001057600080fd5b50604051602080610c318339810180604052602081101561003057600080fd5b810190808051906020019092919050505080600360006101000a81548173ffffffffffffffffffffffffffffffffffffffff021916908373ffffffffffffffffffffffffffffffffffffffff1602179055506100cf6040805190810160405280600b81526020017f43616e6469646174652041000000000000000000000000000000000000000000815250610122640100000000026401000000009004565b61011c6040805190810160405280600b81526020017f43616e6469646174652042000000000000000000000000000000000000000000815250610122640100000000026401000000009004565b506102a0565b600360009054906101000a900473ffffffffffffffffffffffffffffffffffffffff1673ffffffffffffffffffffffffffffffffffffffff163373ffffffffffffffffffffffffffffffffffffffff1614151561017e57600080fd5b600260008154809291906001019190505550606060405190810160405280600254815260200182815260200160008152506001600060025481526020019081526020016000206000820151816000015560208201518160010190805190602001906101ea9291906101fb565b506040820151816002015590505050565b828054600181600116156101000203166002900490600052602060002090601f016020900481019282601f1061023c57805160ff191683800117855561026a565b8280016001018555821561026a579182015b8281111561026957825182559160200191906001019061024e565b5b509050610277919061027b565b5090565b61029d91905b80821115610299576000816000905550600101610281565b5090565b90565b610982806102af6000396000f3fe608060405260043610610099576000357c0100000000000000000000000000000000000000000000000000000000900463ffffffff1680630121b93f1461009e57806309eef43e146100d95780632280043d146101425780632d35a8a2146101715780633477ee2e1461019c578063462e91ec1461025e578063d25b11e014610326578063f4ab9adf1461038f578063fab2f86b146103e0575b600080fd5b3480156100aa57600080fd5b506100d7600480360360208110156100c157600080fd5b81019080803590602001909291905050506103f7565b005b3480156100e557600080fd5b50610128600480360360208110156100fc57600080fd5b81019080803573ffffffffffffffffffffffffffffffffffffffff16906020019092919050505061058d565b604051808215151515815260200191505060405180910390f35b34801561014e57600080fd5b506101576105ad565b604051808215151515815260200191505060405180910390f35b34801561017d57600080fd5b506101866105c0565b6040518082815260200191505060405180910390f35b3480156101a857600080fd5b506101d5600480360360208110156101bf57600080fd5b81019080803590602001909291905050506105c6565b6040518084815260200180602001838152602001828103825284818151815260200191508051906020019080838360005b83811015610221578082015181840152602081019050610206565b50505050905090810190601f16801561024e5780820380516001836020036101000a031916815260200191505b5094505050505060405180910390f35b34801561026a57600080fd5b506103246004803603602081101561028157600080fd5b810190808035906020019064010000000081111561029e57600080fd5b8201836020820111156102b057600080fd5b803590602001918460018302840111640100000000831117156102d257600080fd5b91908080601f016020809104026020016040519081016040528093929190818152602001838380828437600081840152601f19601f820116905080830192505050505050509192919290505050610688565b005b34801561033257600080fd5b506103756004803603602081101561034957600080fd5b81019080803573ffffffffffffffffffffffffffffffffffffffff169060200190929190505050610761565b604051808215151515815260200191505060405180910390f35b34801561039b57600080fd5b506103de600480360360208110156103b257600080fd5b81019080803573ffffffffffffffffffffffffffffffffffffffff169060200190929190505050610781565b005b3480156103ec57600080fd5b506103f5610838565b005b600560009054906101000a900460ff1615151561041357600080fd5b6000803373ffffffffffffffffffffffffffffffffffffffff1673ffffffffffffffffffffffffffffffffffffffff16815260200190815260200160002060009054906101000a900460ff1615151561046b57600080fd5b600460003373ffffffffffffffffffffffffffffffffffffffff1673ffffffffffffffffffffffffffffffffffffffff16815260200190815260200160002060009054906101000a900460ff1615156104c357600080fd5b6000811180156104d557506002548111155b15156104e057600080fd5b60016000803373ffffffffffffffffffffffffffffffffffffffff1673ffffffffffffffffffffffffffffffffffffffff16815260200190815260200160002060006101000a81548160ff0219169083151502179055506001600082815260200190815260200160002060020160008154809291906001019190505550807ffff3c900d938d21d0990d786e819f29b8d05c1ef587b462b939609625b684b1660405160405180910390a250565b60006020528060005260406000206000915054906101000a900460ff1681565b600560009054906101000a900460ff1681565b60025481565b6001602052806000526040600020600091509050806000015490806001018054600181600116156101000203166002900480601f0160208091040260200160405190810160405280929190818152602001828054600181600116156101000203166002900480156106785780601f1061064d57610100808354040283529160200191610678565b820191906000526020600020905b81548152906001019060200180831161065b57829003601f168201915b5050505050908060020154905083565b600360009054906101000a900473ffffffffffffffffffffffffffffffffffffffff1673ffffffffffffffffffffffffffffffffffffffff163373ffffffffffffffffffffffffffffffffffffffff161415156106e457600080fd5b600260008154809291906001019190505550606060405190810160405280600254815260200182815260200160008152506001600060025481526020019081526020016000206000820151816000015560208201518160010190805190602001906107509291906108b1565b506040820151816002015590505050565b60046020528060005260406000206000915054906101000a900460ff1681565b600360009054906101000a900473ffffffffffffffffffffffffffffffffffffffff1673ffffffffffffffffffffffffffffffffffffffff163373ffffffffffffffffffffffffffffffffffffffff161415156107dd57600080fd5b6001600460008373ffffffffffffffffffffffffffffffffffffffff1673ffffffffffffffffffffffffffffffffffffffff16815260200190815260200160002060006101000a81548160ff02191690831515021790555050565b600360009054906101000a900473ffffffffffffffffffffffffffffffffffffffff1673ffffffffffffffffffffffffffffffffffffffff163373ffffffffffffffffffffffffffffffffffffffff1614151561089457600080fd5b6001600560006101000a81548160ff021916908315150217905550565b828054600181600116156101000203166002900490600052602060002090601f016020900481019282601f106108f257805160ff1916838001178555610920565b82800160010185558215610920579182015b8281111561091f578251825591602001919060010190610904565b5b50905061092d9190610931565b5090565b61095391905b8082111561094f576000816000905550600101610937565b5090565b9056fea165627a7a72305820bab8348e51a1be5c6137d8b054a1b8862c948a9f4ca3a6755aa484cf821180070029",
  "source": "pragma solidity ^0.5.0;\n\ncontract Election {\n    struct Candidate {\n        uint id;\n        string name;\n        uint voteCount;\n    }\n    mapping(address => bool) public hasVoted;\n    mapping(uint => Candidate) public candidates;\n    // Store Candidates Count\n    uint public candidatesCount;\n    address admin;\n    mapping(address => bool) public isValidVoter;\n    bool public electionState;\n    // voted event\n    event votedEvent (\n        uint indexed candidateId\n    );\n\n     constructor(address adm) public {\n        admin = adm;\n        addCandidate(\"Candidate A\");\n        addCandidate(\"Candidate B\");\n    }\n\n    function addCandidate (string memory _name) public {\n        require(msg.sender == admin);\n        candidatesCount ++;\n        candidates[candidatesCount] = Candidate(candidatesCount, _name, 0);\n    }\n\n    function addVoter(address voter) public {\n        require(msg.sender == admin);\n        isValidVoter[voter] = true;\n    }\n\n    function vote(uint candidateId) public {\n        require(!electionState);\n        require(!hasVoted[msg.sender]);\n        require(isValidVoter[msg.sender]);\n        require(candidateId > 0 && candidateId <= candidatesCount);\n        hasVoted[msg.sender] = true;\n        candidates[candidateId].voteCount ++;\n        emit votedEvent(candidateId);\n    }\n    \n    function stopVoting() public {\n        require(msg.sender == admin);\n        electionState = true;\n    }\n}\n",
  "sourcePath": "/home/jaya-aditya/repos/election/contracts/Election.sol",
  "compiler": {
    "name": "solc",
    "version": "0.5.0+commit.1d4f565a.Emscripten.clang"
  },
  "schemaVersion": "3.0.2",
  "updatedAt": "2019-04-16T06:54:12.079Z",
  "devdoc": {
    "methods": {}
  },
  "userdoc": {
    "methods": {}
  }
}